:020000040800F2
:10000000C00A0020F9010008FD010008FF010008F6
:1000100001020008030200080502000800000000B9
:1000200000000000000000000000000007020008BF
:1000300009020008000000000B020008C90E0008B9
:10004000CB0E0008CD0E0008CF0E0008D10E000820
:10005000D30E0008D50E0008D70E0008D90E0008F0
:10006000DB0E0008DD0E0008DF0E0008E10E0008C0
:10007000E30E0008E50E0008E70E0008E90E000890
:10008000EB0E0008ED0E0008EF0E0008F10E000860
:10009000F30E0008F50E0008F70E0008F90E000830
:1000A000FB0E0008FD0E0008FF0E0008010F0008FF
:1000B000030F0008050F0008070F0008090F0008CC
:1000C0000B0F00080D0F00080F0F0008110F00089C
:1000D000130F0008150F0008170F0008190F00086C
:1000E000AB0F0008C50F0008C70F000800F002F8AA
:1000F00000F03AF80AA090E8000C82448344AAF188
:100100000107DA4501D100F02FF8AFF2090EBAE885
:100110000F0013F0010F18BFFB1A43F0010318473B
:100120004C3600006C360000103A24BF78C878C105
:10013000FAD8520724BF30C830C144BF04680C60ED
:10014000704700000023002400250026103A28BF35
:1001500078C1FBD8520728BF30C148BF0B60704739
:100160001FB51FBD10B510BD03F0BBFA1146FFF758
:10017000F7FF00F053FD03F0D9FA03B4FFF7F2FFE5
:1001800003BC03F0E1FA000030BF704720BF7047A6
:1001900040BF7047BFF36F8F7047BFF34F8F7047FB
:1001A000BFF35F8F704701DF7047EFF31480704734
:1001B00080F31488BFF36F8F7047EFF309807047A7
:1001C00080F309887047EFF30880704780F3088850
:1001D000704772B6704762B6704771B6704761B6C5
:1001E000704780F311887047EFF31280704740BA70
:1001F000704700BA7047000008480047FEE7FEE776
:10020000FEE7FEE7FEE7FEE7FEE7FEE7FEE7FEE7C6
:1002100003480449024A044B70470000ED000008FF
:10022000C0020020C00A0020C002002070B502F009
:1002300057F94FF4803002F07AF902F0B7F9064628
:10024000012E36D1102002F031FF022002F018FFFB
:10025000002002F0F2F9002002F001FAB00202F0F0
:10026000F5F94FF4E011300402F0CAF9012002F070
:10027000D3F900BF392002F07DF90028FAD002201E
:1002800002F0CDF900BF02F0D3F90828FBD1002518
:1002900040F67D000543002444F4802444F4804467
:1002A0000121284602F092FA0121204602F09BFA31
:1002B00001E000BFFEE770BD10B54FF440608F490C
:1002C0000880012088701020C8708D4802F021FD40
:1002D0004FF4004089490880012088701020C870C0
:1002E000874802F016FD4FF48050844908800420AE
:1002F000C870834802F00DFD04208049088010205A
:10030000C870022088707F4802F003FD4FF46040FF
:100310007A490880032088701820C8707A4802F053
:10032000F8FC4FF48050754908801020C8700320F5
:100330008870754802F0EDFC4FF480606F490880CA
:10034000012088701820C8706F4802F0E2FC4FF45A
:1003500000606A4908800420C8706B4802F0D9FC2C
:1003600010BD10B504462820684908700020487068
:1003700088700846C47002F0D8FA10BD1CB502F0AF
:10038000EDFD02F08BFA00214FF0006002F07EFBE1
:100390004FF4C06002F0C3FA27205C4908700120C6
:1003A0004870002088700120C870084602F0BDFA2D
:1003B0002820564908700020487088700120C870B5
:1003C000084602F0B2FA0C21022002F09EFD02F073
:1003D000C5FD4FF48050009000208DF804000C20E3
:1003E0008DF8050001208DF80600684602F0C4FD76
:1003F0001CBD10B5464801F0D9FD4FF4E130454928
:10040000086000208880C880088148810C2088818D
:100410003F4801F0F7FD01213D4801F057FE012260
:1004200040F226613A4801F05DFE012240F225517A
:10043000374801F057FE10BD10B5374801F0B6FD42
:100440004FF4E1303349086000208880C88008817B
:1004500048810C208881304801F0D4FD01212E48CC
:1004600001F034FE012240F226612B4801F03AFEF1
:10047000012240F22551284801F034FE10BD00B59C
:1004800085B00020ADF800004FF48270ADF8020096
:100490000020ADF80400ADF80600ADF808004FF4F8
:1004A0000070ADF80A001820ADF80C000020ADF87F
:1004B0000E000720ADF810006946184801F027FF2C
:1004C0000121164801F048FF05B000BD002107E0FA
:1004D000002200E0521C41F6A4739A42FAD3491C50
:1004E0008142F5D37047002105E0002200E0521C54
:1004F000512AFCD3491C8142F7D3704700000020E9
:100500000010014000140140000C014004000020D4
:1005100000380140E800002000480040003800405A
:1005200010B50446002C7DD10120FFF7CFFF4FF618
:10053000FF70FB490880022088700020C870F948CD
:1005400002F0E7FB4FF6FF71F64802F091FC40F233
:10055000FB30F3490880022088700020C870F24800
:1005600002F0D7FB40F2FB31EF4802F081FC40F68D
:10057000FF70EB490880022088700020C870EB48AB
:1005800002F0C7FB40F6FF71E84802F071FC04205E
:10059000E3490880022088700020C870E44802F017
:1005A000B8FB0421E24802F063FC4FF40041DF484D
:1005B00002F05EFC4FF46040D94908800220887048
:1005C0000020C870D84802F0A4FB4FF46041D64820
:1005D00002F04EFC4FF48050D14908800220887010
:1005E0001420C870D04802F094FB4FF48051CE48DC
:1005F00002F03CFC4FF44060C9490880022088703A
:100600000020C870C84802F084FB4FF44061C6481F
:1006100002F02CFC4FF48040C14908800220887011
:10062000002000E024E0C870C04802F072FB4FF4E4
:100630008041BE4802F01CFC012001F0DEFF0020DA
:1006400001F0EDFF00BF01F0F3FF0028FBD101F046
:100650006EFF0320B2490880022088700020C87015
:10066000B34802F056FB0321B14802F001FC36E02A
:100670004FF40041AD4802F0F9FB0120FFF726FFDF
:100680004FF46040A6490880032088701820C87085
:10069000A54802F03EFB4FF48050A149088010208D
:1006A000C87003208870A04802F033FB4FF48051DB
:1006B0009D4802F0DBFB4FF48060994908800120DF
:1006C00088701820C870984802F023FB4FF400602F
:1006D000934908800420C870934802F01AFB10BDAB
:1006E00070B504460D464FF480518F4802F0C0FBB0
:1006F000802040EA4400C4B221468E4801F051FEF9
:1007000000BF01218B4801F09FFE0028F9D0012194
:10071000884801F0A2FE874801F045FE28700121BB
:10072000844801F09AFE0021824801F03AFE00BFA1
:100730000121804801F088FE0028F9D001217D4880
:1007400001F08BFE7B4801F02EFE28704FF48051A3
:10075000754802F08BFB70BD70B504460D464FF432
:100760008051714802F084FB7F2000EA4404214656
:10077000704801F016FE00BF01216E4801F064FED2
:100780000028F9D001216B4801F067FE694801F0AB
:100790000AFE2946674801F004FE00BF01216548B2
:1007A00001F052FE0028F9D00121624801F055FE07
:1007B000604801F0F8FD4FF480515B4802F056FBB1
:1007C00070BDF8B506460C46154669463046FFF73B
:1007D00087FF25B19DF800002043009003E09DF8BD
:1007E0000000A04300909DF800103046FFF7B4FFD2
:1007F000F8BD10B54FF480514B4802F037FB4FF471
:1008000000414A4802F034FB0120FFF75FFE4FF43D
:100810000041464802F02AFB0120FFF757FE10BDB9
:1008200008B50F210120FFF797FF0120FFF74EFECB
:1008300069460120FFF754FF9DF80000202801D1F0
:10084000002008BD3CA000F0C5FBC220F9E710B5B0
:10085000044624B9002203211420FFF7B2FF012C23
:1008600009D1012211461420FFF7ABFF002202211B
:100870001420FFF7A6FF022C09D100220121142029
:10088000FFF79FFF012202211420FFF79AFF032C9C
:1008900004D1012203211420FFF793FF1E20FFF74C
:1008A00015FE10BDF8B506460D4669460A20FFF74D
:1008B00017FF9DF8000000F03F0000909DF8000039
:1008C000854201DDC120F8BD002405E03119092071
:1008D000FFF706FF601CC4B2AC42F7DB0020F2E772
:1008E000F8B506460D4669460A20FFF7F9FE9DF861
:1008F000000000F03F0000909DF80000C0F14000B3
:10090000A84201DAC120F8BD002405E0315D0920CC
:10091000FFF722FF601CC4B2AC42F7DB0020F2E715
:100920000000002000080140000C014000100140C0
:100930000014014000380040464D313735585820EA
:10094000536F66745265736574204572726F720DD1
:100950000A00000010B5D34BD34A0021084600F02E
:1009600018FF044634B10020FFF771FFCFA000F05C
:1009700031FB10BDD2A000F02DFBD648D6A10968EE
:1009800001600146012000F0D6FF044634B100208A
:10099000FFF75DFFD2A000F01DFBEAE7D7A000F053
:1009A00019FBDE49012001F009F8044634B10020AA
:1009B000FFF74DFFDAA000F00DFBDAE7DEA000F054
:1009C00009FB1021D54800F051FBC1A000F002FB4B
:1009D000DE48DFA1096801600146012001F02AF824
:1009E000044634B10020FFF732FFDBA000F0F2FA3A
:1009F000BFE7DFA000F0EEFA012001F0C1F80446E5
:100A000034B10020FFF723FFDFA000F0E3FAB0E7E6
:100A1000E3A000F0DFFAC149012000F0CFFF044657
:100A200034B10020FFF713FFBDA000F0D3FAA0E718
:100A3000C1A000F0CFFA1021B84800F017FBA4A025
:100A400000F0C8FADC48DDA1096801600146012018
:100A500001F043F8044634B10020FFF7F8FEBEA0D1
:100A600000F0B8FA85E7C2A000F0B4FA012001F066
:100A7000C3F8044634B10020FFF7E9FED1A000F02E
:100A8000A9FA76E7D4A000F0A5FAA449012000F065
:100A900095FF044634B10020FFF7D9FEA0A000F076
:100AA00099FA66E7A4A000F095FA10219B4800F09F
:100AB000DDFA87A000F08EFA00BF5AE710B5ADF559
:100AC000067D46A8029006A80490C949481E01F078
:100AD000EFF8044644B10020FFF7B9FEC5A000F0CE
:100AE00079FA0DF5067D10BDC7A000F073FAC04875
:100AF000001FC178001D00F0B9FA75A000F06AFA75
:100B000000BFEEE710B5C3A000F064FAFFF771FE76
:100B100000F00CFB0320FFF79AFE00F08CFC04466B
:100B20001CB10020FFF793FE10BDBFA000F052FAE9
:100B300002215C48801E00F099FA65A000F04AFA94
:100B4000BCA000F047FA0421564800F08FFA60A0DC
:100B500000F040FABAA000F03DFA01215148401DD2
:100B600000F084FA5AA000F035FA4E48801EC07991
:100B7000082801D1FFF7EEFE4A48801EC0792028E0
:100B800001D1FFF79BFF0020FFF761FE00BFCBE71D
:100B900010B5AEA000F01EFA00F0E7FA0320FFF750
:100BA00056FE00F05DFC04461CB10020FFF74FFE2E
:100BB00010BDABA000F00EFA0C21AC4800F056FAC4
:100BC00043A000F007FA00F0E5FC04461CB1002049
:100BD000FFF73DFEECE7A6A000F0FCF90121A348D9
:100BE000173000F043FA3AA000F0F4F900F027FDC6
:100BF00004461CB10020FFF72AFED9E78DA000F0C3
:100C0000E9F908219948213000F030FA30A000F0CD
:100C1000E1F90020FFF71BFE00BFC9E71CB5FFF795
:100C200005FBFFF749FBFFF707FCFFF728FCFFF781
:100C3000A5FB934800F069FA92A000F0CBF90420DC
:100C400097490860FFF7D5FD04209549091F086002
:100C500027E025E04FF41670FFF738FCFFF7C9FDD9
:100C600069460120FFF73CFD8EA000F0B3F9012199
:100C7000684600F0FBF916A000F0ACF901A800F0FE
:100C80002BFD68B99DF8040000F0010008B1FFF7E2
:100C900039FF9DF8040000F0020008B1FFF778FF6B
:100CA000D8E7D6E70A0000201F0000202D3E204193
:100CB000555448204552524F52210D0A0000000061
:100CC0002D3E20415554482053554343455353210D
:100CD0000D0A0000130000200000000800000000C2
:100CE0002D3E2053455420424C4F434B2056414CFF
:100CF0005545204552524F52210D0A002D3E20539A
:100D0000455420424C4F434B2056414C55452053AF
:100D1000554343455353210D0A000000490100206B
:100D20002D3E205245414420424C4F434B204552DA
:100D3000524F52210D0A00002D3E205245414420C1
:100D4000424C4F434B203D20000000001700002084
:100D500000000004000000002D3E20494E432056B4
:100D6000414C5545204552524F52210D0A0000007A
:100D70002D3E20494E432056414C55452053554366
:100D800043455353210D0A002D3E205452414E53EA
:100D9000464552204552524F52210D0A0000000094
:100DA0002D3E205452414E53464552205355434305
:100DB000455353210D0A00001B00002000000003D2
:100DC000000000002D3E20524553544F524520450F
:100DD00052524F52210D0A002D3E20524553544F7E
:100DE00052452053554343455353210D0A000000FB
:100DF0005D0100202D3E2052415453204552524F58
:100E000052210D0A000000002D3E20415453203D88
:100E1000200000000D0A2D3E20545950452041204D
:100E200043415244210D0A002D3E2041545141209E
:100E30003D2000002D3E20554944203D200000006B
:100E40002D3E2053414B203D200000002D3E2054DC
:100E500059504520422043415244210D0A000000D0
:100E60002D3E2041545142203D2000002001002011
:100E70002D3E20415454524942203D2000000000A4
:100E800010010020464D3137353530205245414460
:100E900045522053544D33322044454D4F0D0A00E6
:100EA000141401402D3E2030783031203D200000C8
:100EB000704700BFFEE700BFFEE700BFFEE700BFD0
:100EC000FEE770477047704770477047704770473C
:100ED000704770477047704770477047704770475A
:100EE000704770477047704770477047704770474A
:100EF000704770477047704770477047704770473A
:100F00007047704770477047704770477047704729
:100F1000704770477047704710B540F226612A4805
:100F200001F0A0F9D0B140F22661274801F0C0F9E4
:100F3000264840882549098888420CDA2348408899
:100F4000401C224948800846C0684988405C1E49C8
:100F5000091D088002E001201C49087140F225515A
:100F6000194801F07FF9F8B140F22551164801F017
:100F70009FF9164800891549C98888420BDA144838
:100F800000881249C968114A128988540F4800899B
:100F9000401C0E4908810D4800890C49C9888842C7
:100FA00002D101200949887210BD10B54FF480505C
:100FB00002F04BF828B1FFF739F94FF4805002F0F6
:100FC00055F810BD704770470048004010010020E0
:100FD0000438014010B50446204602F0E9FA4F49B2
:100FE00008800846008800B910BD4C48C460002045
:100FF0004A49488008710846C06800784849088016
:1010000000BF464800790028FBD000BFECE7002273
:10101000424B1A811A46D080D16000229A7200BFDA
:101020003E4A927A002AFBD0704708B51DE0694617
:101030000120FFF7ECFF9DF800004E2803D09DF83B
:1010400000006E2804D137A0FFF7C4FF002008BDC0
:101050009DF80000592803D09DF80000792804D19C
:1010600031A0FFF7B7FF0120F1E7E0E718B502462E
:101070002A4CC4F80CD0002044E0135C1B09274C18
:10108000E4682370254BDB681B780A2B07DA234BB7
:10109000DB681B783033214CE468237006E01F4B7B
:1010A000DB681B7837331D4CE4682370135C03F056
:1010B0000F031A4CE4686370184BDB685B780A2BEB
:1010C00007DA164BDB685B783033144CE4686370E6
:1010D00006E0124BDB685B783733104CE4686370D2
:1010E00000230E4C237102232380002363802346B8
:1010F000DB681B780A4C238000BF084B1B79002B50
:10110000FBD0401C8842B8D318BD0021018041802B
:10111000C1800181817201717047000010010020BF
:10112000044800404E0D0A00590D0A0010B5262152
:101130002420FFF711FB012240211520FFF741FB7E
:10114000F0212720FFF708FB1F212820FFF704FBD1
:1011500010210C20FFF700FB40212620FFF7FCFAAE
:1011600084211820FFF7F8FA10BD10B500220821DD
:101170000846FFF726FB26212420FFF7EDFA002181
:101180001520FFF7E9FAF6212720FFF7E5FA1F21DE
:101190002820FFF7E1FA0A212920FFF7DDFA1021C4
:1011A0000C20FFF7D9FA40212620FFF7D5FA80213D
:1011B0001820FFF7D1FA10BD08B580211220FFF7E3
:1011C000CBFA80211320FFF7C7FA00210120FFF797
:1011D000C3FA80210A20FFF7BFFA50210920FFF748
:1011E000BBFA00210920FFF7B7FA04210120FFF71D
:1011F000B3FA80210D20FFF7AFFA0220FFF766F95E
:1012000069460A20FFF76CFA9DF8000008B9002033
:1012100008BDF320FCE708B500211220FFF79CFA77
:1012200000211320FFF798FA00210120FFF794FA1C
:1012300080210A20FFF790FA52210920FFF78CFA4B
:101240000C210120FFF788FA87210D20FFF784FA8F
:101250000120FFF73BF969460A20FFF741FA9DF8A4
:10126000000002280AD1FE490920FFF739FAFC499B
:10127000491C0920FFF734FA002008BDF320FCE7E1
:1012800008B500211220FFF767FA00211320FFF7AD
:1012900063FA00210120FFF75FFA80210A20FFF79F
:1012A0005BFA26210920FFF757FA0C210120FFF7EE
:1012B00053FA87210D20FFF74FFA0220FFF706F9B6
:1012C00069460A20FFF70CFA9DF8000002280AD1AF
:1012D000E3490920FFF704FAE149491C0920FFF717
:1012E000FFF9002008BDF320FCE708B5002112201B
:1012F000FFF732FA00211320FFF72EFA0021012018
:10130000FFF72AFA80210A20FFF726FA9321092005
:10131000FFF722FA20210920FFF71EFA0C210120F5
:10132000FFF71AFA80210D20FFF716FA0220FFF7C7
:10133000CDF869460A20FFF7D3F99DF8000005288B
:1013400029D1C749891C0920FFF7CAF9C449C91C1A
:101350000920FFF7C5F9C249091D0920FFF7C0F9A7
:10136000BF49491D0920FFF7BBF9BD49891D092067
:10137000FFF7B6F9BA488078B949C9784840B84902
:1013800009794840B64949794840B5498979884240
:1013900001D1002008BDF320FCE708B58021122010
:1013A000FFF7DAF980211320FFF7D6F90021012099
:1013B000FFF7D2F980210A20FFF7CEF99321092007
:1013C000FFF7CAF970210920FFF7C6F9A448817810
:1013D0000920FFF7C1F9A248C1780920FFF7BCF93D
:1013E0009F4801790920FFF7B7F99D484179092005
:1013F000FFF7B2F99A4881790920FFF7ADF90C217E
:101400000120FFF7A9F980210D20FFF7A5F902209F
:10141000FFF75CF869460A20FFF762F99DF80000C3
:10142000012806D18E49C91D0920FFF759F900206E
:1014300008BDF320FCE710B5FFF7EDFE04460CB144
:10144000F32010BDFFF751FF04460CB1F320F8E77D
:10145000FFF7A3FF04460CB1F320F2E72046F0E7C4
:1014600038B583211220FFF777F983211320FFF786
:1014700073F900210120FFF76FF980210A20FFF79F
:101480006BF905210920FFF767F900210920FFF713
:1014900063F908210920FFF75FF90C210120FFF70C
:1014A0005BF980210D20FFF757F90A20FFF70EF8AE
:1014B00069460A20FFF714F99DF800000C281AD19C
:1014C000002406E0674801190920FFF709F9601CAC
:1014D000C4B20C2CF6DB63480146D1F80110C160A0
:1014E0000146D1F80610016101464A898282097BD2
:1014F0008175002038BDF320FCE738B58321122028
:10150000FFF72AF983211320FFF726F90021012094
:10151000FFF722F980210A20FFF71EF90521092093
:10152000FFF71AF900210920FFF716F90021092019
:10153000FFF712F90C210120FFF70EF980210D2091
:10154000FFF70AF90A20FEF7C1FF69460A20FFF7F4
:10155000C7F89DF800000C281AD1002406E0414885
:1015600001190920FFF7BCF8601CC4B20C2CF6DB93
:101570003C480146D1F80110C1600146D1F806107F
:10158000016101464A898282097B8175002038BD4C
:10159000F320FCE708B583211220FFF7DDF8832153
:1015A0001320FFF7D9F800210120FFF7D5F880219B
:1015B0000A20FFF7D1F81D210920FFF7CDF82948AF
:1015C000017B0920FFF7C8F82648417B0920FFF777
:1015D000C3F82448817B0920FFF7BEF82148C17B6E
:1015E0000920FFF7B9F800210920FFF7B5F8082115
:1015F0000920FFF7B1F801210920FFF7ADF801211B
:101600000920FFF7A9F80C210120FFF7A5F8802198
:101610000D20FFF7A1F80A20FEF758FF69460A20BF
:10162000FFF75EF89DF80000012806D10D4917313B
:101630000920FFF755F8002008BDF320FCE738B576
:1016400083211220FFF788F883211320FFF784F805
:1016500000210120FFF780F880210A2004E000002B
:101660000800002020010020FFF776F80021092063
:10167000FFF772F836210920FFF76EF800210920E4
:10168000FFF76AF800210920FFF766F80821092012
:10169000FFF762F80C210120FFF75EF880210D2092
:1016A000FFF75AF80A20FEF711FF69460A20FFF7F4
:1016B00017F89DF800000A280CD1002406E03048F5
:1016C00001190920FFF70CF8601CC4B2082CF6DBE6
:1016D000002038BDF320FCE770B5044600202070E0
:1016E000FFF724FD0320FFF7B2F8FFF794FD05464E
:1016F0001DB9207840F001002070FFF736FDFFF79C
:10170000AFFE05461DB9207840F002002070002091
:10171000FFF79DF8207808B1002070BDF320FCE7AA
:1017200070B5044600210120FFF716F880210A2039
:10173000FFF712F821786068FFF7D2F805460DB17F
:10174000284670BD0C210120FFF706F801228021F8
:101750000D20FFF736F82069FEF7B8FE04F1080106
:101760000A20FEF7BDFF207A002805DD217AE06817
:10177000FFF798F8054600E0F2252846E1E700006B
:101780004101002010B5002208210846FFF719F892
:1017900010BDF8B505460E4614461F460021082028
:1017A000FEF7DAFF80211220FEF7D6FF80211320FA
:1017B000FEF7D2FF00210120FEF7CEFF80210A2094
:1017C000FEF7CAFF1DB960210920FEF7C5FF012DF4
:1017D00003D161210920FEF7BFFFB006010E0920E9
:1017E000FEF7BAFF21780920FEF7B6FF61780920DD
:1017F000FEF7B2FFA1780920FEF7AEFFE1780920DD
:10180000FEF7AAFF21790920FEF7A6FF61790920DA
:10181000FEF7A2FFF74881780920FEF79DFFF54803
:10182000C1780920FEF798FFF24801790920FEF7F8
:1018300093FFF04841790920FEF78EFF0E21012029
:10184000FEF78AFF80210D20FEF786FF0A20FEF7B3
:101850003DFE69460820FEF743FF9DF8000000F0BA
:10186000080008B10020F8BDE120FCE7F8B5054606
:101870000E4680211220FEF76FFF00211320FEF795
:101880006BFF00210120FEF767FF80210A20FEF791
:1018900063FFA0210920FEF75FFF29460920FEF71C
:1018A0005BFF0C210120FEF757FF80210D20FEF782
:1018B00053FF0A20FEF70AFE69460A20FEF710FFD2
:1018C0009DF80000012809D169460920FEF708FFAC
:1018D0009DF800000A2801D0F320F8BD80210A20DD
:1018E000FEF73AFF002405E0315D0920FEF734FFE2
:1018F000601CC4B2102CF7DB0C210120FEF72CFF7A
:1019000080210D20FEF728FF0A20FEF7DFFD694643
:101910000A20FEF7E5FE9DF80000012809D169467E
:101920000920FEF7DDFE9DF800000A2801D1002005
:10193000D3E7F320D1E77FB505460C4620788DF834
:10194000000060788DF80100A0788DF80200E07842
:101950008DF803002078C043C0B28DF80400607891
:10196000C043C0B28DF80500A078C043C0B28DF866
:101970000600E078C043C0B28DF8070020788DF8EB
:10198000080060788DF80900A0788DF80A00E078EA
:101990008DF80B008DF80C50E843C0B28DF80D00A7
:1019A0008DF80E50E843C0B28DF80F006946284606
:1019B000FFF75CFF0646304604B070BDF8B505463B
:1019C0000E4680211220FEF7C7FE80211320FEF76D
:1019D000C3FE00210120FEF7BFFE80210A20FEF792
:1019E000BBFE30210920FEF7B7FE29460920FEF78D
:1019F000B3FE0C210120FEF7AFFE80210D20FEF783
:101A0000ABFE0A20FEF762FD69460A20FEF768FE7B
:101A10009DF8000010280BD1002405E031190920A1
:101A2000FEF75EFE601CC4B2102CF7DB0020F8BD90
:101A3000F320FCE7F8B505460E4680211220FEF79C
:101A40008BFE00211320FEF787FE00210120FEF708
:101A500083FE80210A20FEF77FFEC1210920FEF7C8
:101A60007BFE29460920FEF777FE0C210120FEF7B8
:101A700073FE80210D20FEF76FFE0A20FEF726FD83
:101A800069460A20FEF72CFE9DF80000012809D1C6
:101A900069460920FEF724FE9DF800000A2801D0BF
:101AA000F320F8BD80210A20FEF756FE002405E051
:101AB000315D0920FEF750FE601CC4B2042CF7DB38
:101AC00004210120FEF748FE80210D20FEF744FE90
:101AD0000A20FEF7FBFC0020E3E7F8B505460E46BA
:101AE00080211220FEF738FE00211320FEF734FE7D
:101AF00000210120FEF730FE80210A20FEF72CFE97
:101B0000C0210920FEF728FE29460920FEF724FE01
:101B10000C210120FEF720FE80210D20FEF71CFE87
:101B20000A20FEF7D3FC69460A20FEF7D9FD9DF88E
:101B30000000012809D169460920FEF7D1FD9DF872
:101B400000000A2801D0F320F8BD80210A20FEF70A
:101B500003FE002405E0315D0920FEF7FDFD601C59
:101B6000C4B2042CF7DB04210120FEF7F5FD80212F
:101B70000D20FEF7F1FD0A20FEF7A8FC0020E3E7A8
:101B800038B5044680211220FEF7E6FD002113201F
:101B9000FEF7E2FD00210120FEF7DEFD80210A2094
:101BA000FEF7DAFDB0210920FEF7D6FD2146092017
:101BB000FEF7D2FD0C210120FEF7CEFD80210D2085
:101BC000FEF7CAFD0A20FEF781FC69460A20FEF7EF
:101BD00087FD9DF80000012809D169460920FEF71C
:101BE0007FFD9DF800000A2801D1002038BDF320B8
:101BF000FCE700000800002038B5054680211220CF
:101C0000FEF7AAFD00211320FEF7A6FD002101200A
:101C1000FEF7A2FD80210A20FEF79EFDC2210920C9
:101C2000FEF79AFD29460920FEF796FD0C210120BA
:101C3000FEF792FD80210D20FEF78EFD0A20FEF7B3
:101C400045FC69460A20FEF74BFD9DF8000001287F
:101C500009D169460920FEF743FD9DF800000A28D6
:101C600001D0F32038BD80210A20FEF775FD002445
:101C700005E000210920FEF76FFD601CC4B2042CB2
:101C8000F7DB04210120FEF767FD80210D20FEF720
:101C900063FD0A20FEF71AFC69460A20FEF720FDC4
:101CA0009DF8000008B1F320DCE70020DAE700002F
:101CB00070B596B004460D4615A8019005A803908E
:101CC000E0200199087050200199487002208DF899
:101CD0000000642004906846FFF722FD06463EB9E6
:101CE0009DF80800207022782846039901F07FFCB7
:101CF000304616B070BDF0B597B0044606A8029005
:101D000004904FF4FA700590002020722578002787
:101D100083E0402D33DA95480078029908702378E3
:101D200062681A44511B029A501C2A4601F05FFC5B
:101D3000681CC0B28DF804008DA0FFF74BF99DF828
:101D400004100298FFF792F98BA0FFF743F901A85E
:101D5000FFF7E6FC064616B99DF80C0010B93046B0
:101D600017B0F0BD85A0FFF735F99DF80C10049869
:101D7000FFF77CF980A0FFF72DF9002550E07B48A4
:101D8000007840F0100002990870237862681A44C5
:101D9000511B029A501C3F2201F029FC40208DF873
:101DA000040078A0FFF716F99DF804100298FFF7D9
:101DB0005DF971A0FFF70EF901A8FFF7B1FC064627
:101DC0006EA0FFF707F99DF80C100498FFF74EF985
:101DD00069A0FFF7FFF82EB19DF80C00012801D192
:101DE0003046BDE70498007816909DF85800A22868
:101DF00003D09DF85800A3280BD1A5F13F00C5B230
:101E00009DF8580000F00F0080F00100574908705D
:101E100001E0F320A4E7781CC7B2102FFFF679AFDA
:101E200000BF00279DE016B99DF80C0008B9F3200B
:101E300096E70498007816909DF85800022803D081
:101E40009DF85800032819D19DF8580080F0010032
:101E50004649087094F808C0E36803EB0C009DF84D
:101E60000C305A1E049B591C01F0C1FB207A9DF8CE
:101E70000C100844401E2072002071E79DF85800A5
:101E8000122803D09DF85800132838D194F808C0C0
:101E9000E36803EB0C009DF80C305A1E049B591CA0
:101EA00001F0A5FB207A9DF80C100844401E20721A
:101EB0009DF8580000F0030040F0A00080F0010001
:101EC0000299087001208DF8040030A0FFF782F815
:101ED0009DF804100298FFF7C9F827A0FFF77AF8D9
:101EE00001A8FFF71DFC06462BA0FFF773F89DF82D
:101EF0000C100498FFF7BAF81FA0FFF76BF89DF8D5
:101F00005800F22803D09DF85800F32827D19DF8F7
:101F10005800029908709DF80C008DF804009DF897
:101F20000C200499029801F062FB1DA0FFF752F803
:101F30009DF804100298FFF799F80FA0FFF74AF8F0
:101F400001A8FFF7EDFB064613A0FFF743F89DF845
:101F50000C100498FFF78AF807A0FFF73BF8781CED
:101F6000C7B2FF2FFFF65FAFF320F9E6590100205B
:101F70002D2D3E20000000000D0A00003C2D2D20DC
:101F8000000000002E2E2D2D3E2000002E2E2E2D86
:101F90002D3E203D200000003C2D2D203D20000046
:101FA0002E2E2E2E2D2D3E203D20000010B5044655
:101FB000C548204478B1B0F5806F16D0B0F5744FA5
:101FC0001DD10121880300F01BFC00214FF480404B
:101FD00000F016FC14E00121480400F01EFC002172
:101FE0004FF4003000F019FC0AE00121880400F0F1
:101FF00014FC00214FF4802000F00FFC00E000BF33
:1020000000BF10BD2DE9F04385B006460D46002403
:10201000A14600BF00BF348A4CF2FF000440E888AC
:10202000E9890843298A0843698A0843A98A084339
:10203000044334820024B4894EF6F3100440A88887
:1020400029890843A98908430443B4810024B48A38
:102050004FF6FF40044068890443B48200BF6846DD
:1020600000F047FB9948864202D1DDF80C9001E070
:10207000DDF8089009EBC90000EB09102968890018
:10208000B0FBF1F76420B7FBF0F0040120096421F4
:1020900001FB1078322000EB0810B0FBF1F000F0EB
:1020A0000F000443348105B0BDE8F0834FF41651AE
:1020B000016000218180C180018141810C218181E9
:1020C0000021C181018241828182704721B18289D0
:1020D00042F40052828104E082894DF6FF731A4077
:1020E00082817047F0B503460024002600250020B9
:1020F000C1F3421401F01F06012707FA06F518463E
:10210000012C01D10C3004E0022C01D1103000E090
:1021100014301AB107682F43076002E00768AF4325
:102120000760F0BD1AB1838A0B43838202E0838A81
:102130008B4383827047028A4FF6F0731A40028203
:10214000028A0A430282704782894FF2FF731A4063
:10215000828182890A438281704721B1828942F05B
:102160000202828104E082894FF6FD731A40828167
:102170007047028A4FF6DF731A400282028A0A43CE
:102180000282704721B1028A42F48042028204E056
:10219000028A4BF6FF731A4002827047C1F30802AD
:1021A0008280704701468888C0F3080070478189A3
:1021B00041F0010181817047028BD2B20283028B10
:1021C00042EA012202837047028B02F47F420283BB
:1021D000028B0A430283704721B1828A42F02002B7
:1021E000828204E0828A4FF6DF731A40828270474F
:1021F00021B1828A42F01002828204E0828A4FF684
:10220000EF731A408282704721B1828A42F008023D
:10221000828204E0828A4FF6F7731A408282704706
:10222000828A4FF6FB731A408282828A0A43828234
:10223000704721B1828A42F00202828204E0828ADF
:102240004FF6FD731A4082827047024600201388C1
:102250000B400BB1012000E00020704702888A4348
:102260000280704770B502460B460024002100250D
:102270000020C3F3421503F01F01012606FA01F105
:10228000012D02D19689314006E0022D02D1168A35
:10229000314001E0968A31401C12012606FA04F40E
:1022A0001688344011B10CB1012000E0002070BD4F
:1022B00010B5002200230A12012404FA02F3048854
:1022C0009C43048010BD000000BCFFBF00380140EB
:1022D00010B504468148204460B1B0F5784F13D161
:1022E0000121080300F08CFA00214FF4805000F027
:1022F00087FA0AE00121880300F08FFA00214FF4E9
:10230000804000F08AFA00E000BF00BF10BD10B5A9
:102310000022028802F441520B884C8823438C88A7
:102320002343CC8823430C8923434C8923438C8942
:102330002343CC8923431A4302800B8A038210BDB6
:102340000021018041808180C180018141818181A2
:10235000C18107210182704721B1028842F0400209
:10236000028004E002884FF6BF731A400280704773
:1023700030B5002400230C110125A540ABB21AB1E1
:1023800085881D43858002E085889D43858030BD1A
:102390001AB183880B43838002E083888B43838058
:1023A0007047818170470146888970474FF6FF6208
:1023B000914204D0028842F48072028004E00288D4
:1023C0004FF6FF631A400280704721B1828842F0C5
:1023D0000402828004E082884FF6FB731A408280F8
:1023E000704702884FF2FF731A40028002880A4346
:1023F00002807047018841F480510180704721B10B
:10240000028842F40052028004E002884DF6FF7315
:102410001A400280704702460020012901D0108B2B
:1024200000E0908A70470146088A7047B1F5804FF6
:1024300004D1028842F48042028004E002884BF614
:10244000FF731A40028070470246002013890B4038
:102450000BB1012000E000207047202905D102893E
:10246000028842F04002028006E0402901D1028940
:1024700002E002898A4302817047F0B502460020DB
:1024800000240023002501F00F070126BE40B4B24E
:102490000B1101269E40B3B2968806EA0305168901
:1024A000264016B10DB1012000E00020F0BD10B5AE
:1024B0000022552905D10389038843F04003038096
:1024C0000BE0562901D1038907E001F00F04012335
:1024D000A3409AB203899343038110BD00C8FFBF94
:1024E0000020E349C8600861142048610020886129
:1024F000C8610846006840F001000860084640686E
:10250000DC490840DA49486008460068DA49084072
:10251000D74908600846006820F480200860084613
:10252000406820F4FE004860002088607047D04971
:10253000096821F48031CE4A11601146096821F4FE
:1025400080211160B0F5803F03D0B0F5802F0ED10F
:1025500006E0C749096841F48031C54A116007E0C7
:10256000C349096841F4A021C14A116000E000BFDD
:1025700000BF704710B501460022002300204A1119
:10258000012A02D1BA4C236806E0022A02D1B84CD3
:10259000236A01E0B64C636A01F01F0201249440F3
:1025A0001C400CB1012000E0002010BD00B500BFB0
:1025B0003120FFF7DFFFB1490870B1480068401CC7
:1025C000AF490860AD48007828B9084600684FF662
:1025D000FF718842ECD13120FFF7CCFF08B1012018
:1025E00000BD0020FCE701460020A14A106820F051
:1025F000F80040EAC10010607047A24908607047C7
:10260000024600209A4B586820F47C1042EA0103ED
:102610001843974B586070479A49086670470146BF
:102620000020934A506820F0030008435060704730
:102630008F48406800F00C007047014600208C4A2B
:10264000506820F0F00008435060704701460020B9
:10265000874A506820F4E0600843506070470146A4
:102660000020834A506820F4605040EAC100506066
:10267000704729B17E4A527A02437D4B5A7204E078
:102680007B4A527A82437A4B5A7270477D49D831DD
:102690000860704701460020754A506820F44040A9
:1026A0000843506070470021714A20321170704A0F
:1026B00082F82010012802D004280AD104E0012168
:1026C0006B4A2032117005E00521694A20321170F1
:1026D00000E000BF00BF70476B4908607047644965
:1026E000096A0143624A11627047674944390860C8
:1026F000704730B500210022002400235C4D6D6836
:1027000005F00C0121B1042905D0082923D105E0E9
:102710005E4D056022E05D4D05601FE0544D6D6823
:1027200005F47012022505EB9242514D6D6805F4D7
:1027300080341CB9564D554305600BE04C4D6D6817
:1027400005F400351DB1524D5543056002E04F4D73
:102750005543056002E04D4D056000BF00BF444D8C
:102760006D6805F0F00109094A4D6B5C0568DD40B4
:1027700045603F4D6D6805F4E061090A454D6B5CAD
:102780004568DD4085603A4D6D6805F46051C90AC1
:10279000404D6B5C4568DD40C560354D6D6805F4A6
:1027A0004041890B3C4D6B5CC568B5FBF3F5056199
:1027B00030BD29B12E4A526902432D4B5A6104E0C3
:1027C0002B4A526982432A4B5A61704729B1284AE1
:1027D00092690243264B9A6104E0254A926982433A
:1027E000234B9A61704729B1214AD2690243204B99
:1027F000DA6104E01E4AD26982431D4BDA617047F8
:1028000029B11B4AD2680243194BDA6004E0184A26
:10281000D2688243164BDA60704729B1144A1269B4
:102820000243134B1A6104E0114A12698243104BB0
:102830001A61704714494039086070471149C864EB
:1028400070470B49C87170470948406A40F0807072
:1028500007494862704701460020054A92680A40CD
:102860000AB1012000E000207047014988727047DA
:10287000001002400000FFF8FFFFF6FEE00000201D
:10288000E4000020000042428004424200127A002C
:1028900000093D0056370008663700080020411E39
:1028A000ED4A11604A0DEC498039C1F88420411E7F
:1028B0004FF0E022C2F880124A0DE8490A6000BFDA
:1028C00004E00022E64941F82020401C0B28F8D300
:1028D000704700204FF02061E24A11600021121D74
:1028E0001160E149121D11600021121D1160121DBD
:1028F000116000BF05E00022DA49143141F82020C0
:10290000401C0328F7D30021D64A20321160491E0B
:10291000121D1160121D1160121D11607047D24905
:102920000143D04A083211607047F0B500210022FF
:10293000002300250F24C678002E35D0C94E083656
:10294000366806F4E066C6F5E066310AC1F10405B2
:10295000CC40467806FA05F18678264031430901D5
:102960000678B607F60EB140BD4E0778BF1056F890
:1029700027200678B607F70EFF2606FA07F39A43D4
:1029800019400A43B64E0778BF1046F8272006784C
:1029900006F01F070126BE4007787F11BF0007F130
:1029A000E027C7F800610BE0067806F01F07012654
:1029B000BE40A94F90F800C04FEA6C1C47F82C604D
:1029C000F0BD0021017041708170C170704710B579
:1029D000FDF7FFFB10BD10B5FDF7FDFB10BD10B5F9
:1029E000FDF7FBFB10BD10B5FDF7F9FB10BD10B5F1
:1029F00004462001FDF7F5FB10BD10B5FDF7F4FB13
:102A000010BD98480068C0F30930704710B5014602
:102A10000020002201F01F04012303FA04F28E4B70
:102A200080334C1153F824301340934201D10120DC
:102A300000E0002010BD8D490860704700F01F02C3
:102A400001219140854A121F431142F8231070471B
:102A500084480068C0F30900704710B501460020A3
:102A6000002201F01F04012303FA04F27B4B7C33A4
:102A70004C1153F824301340934201D1012000E05F
:102A8000002010BD7748001F00687047784A0A4050
:102A90000243744B1B1D1A6070477348001D714937
:102AA0000831086070477048401C6E490831086062
:102AB000704739B16B4A0C3212680243694B0C33D0
:102AC0001A6006E0674A0C3212688243654B0C3389
:102AD0001A60704710B5002200F01F04012303FAAA
:102AE00004F239B15F4B20331B6813435D4C203433
:102AF000236006E05B4B20331B689343594C203422
:102B0000236010BDF0B503460C4615460020FF2299
:102B100000260021534F08373F6807F4E067C7F5E8
:102B2000E067390AC1F10400CA4004FA00F105EA7D
:102B300002073943090103F0C0008009C3F30122F1
:102B4000D700B9404FEAC20CFF2707FA0CF6454FF1
:102B5000143757F82070B743DFF808C10CF1140C94
:102B60004CF82070674657F820700F434CF82070DF
:102B7000F0BD10B50246002000230021910A01F0AB
:102B80000F01012404FA01F1364C2034246804EAD0
:102B900001038B4201D1012000E0002010BD002183
:102BA00000F01F012F4A126801238B401A432D4B5E
:102BB0001A60704710B5002100F01F01294A126801
:102BC0004B1E01249C402243264B1A6010BD10B5B9
:102BD0000246002000230021C2F38331012404FABD
:102BE00001F1204C2034246804EA01038B4201D116
:102BF000012000E0002010BD30B501460020002279
:102C00000023C1F38142C1F301531AB9154C283492
:102C1000206811E0012A0CD1124C24342468DD0014
:102C200024FA05F0022B02D000F00F0004E0C0B23D
:102C300002E00C4C2C34206830BD014600200022FC
:102C4000C1F380521AB9074B3033186802E0054BC4
:102C5000343318687047000080E100E084E200E04F
:102C600000E400E004ED00E00000FA0500EF00E001
:102C700080FFFF1F10B50446B449601A8C4220D073
:102C800006DCB348204450B1B0F5806F34D10FE07A
:102C9000B0F5806F1ED0B0F5006F2DD123E001217B
:102CA0000420FFF7ADFD00210420FFF7A9FD24E07B
:102CB00001210820FFF7A4FD00210820FFF7A0FD57
:102CC0001BE001211020FFF79BFD00211020FFF7E2
:102CD00097FD12E001212020FFF792FD0021202026
:102CE000FFF78EFD09E001214020FFF789FD00215B
:102CF0004020FFF785FD00E000BF00BF10BD10B50C
:102D000001210846FFF77CFD00210120FFF778FD37
:102D100010BD2DE9F04102460025002600200023C9
:102D20000024002791F803C00CF00F0591F803C0B0
:102D30000CF0100CBCF1000F03D091F802C04CEA6B
:102D4000050591F800C0BCF1000F31D014680020D7
:102D50002AE04FF0010C0CFA00F3B1F800C00CEAC5
:102D600003069E421FD183004FF00F0C0CFA03F7AD
:102D7000BC4305FA03FC4CEA040491F803C0BCF11F
:102D8000280F05D14FF0010C0CFA00FCC2F814C05A
:102D900091F803C0BCF1480F05D14FF0010C0CFABB
:102DA00000FCC2F810C0401C0828D2D314600024D4
:102DB000B1F800C0BCF1FF0F34DD546800202EE0F4
:102DC00000F1080C4FF0010808FA0CF3B1F800C04C
:102DD0000CEA03069E4221D183004FF00F0C0CFA3F
:102DE00003F7BC4305FA03FC4CEA040491F803C062
:102DF000BCF1280F05D100F1080C08FA0CF8C2F854
:102E0000148091F803C0BCF1480F07D100F1080C01
:102E10004FF0010808FA0CF8C2F81080401C08288E
:102E2000CED35460BDE8F0814FF6FF7101800221DE
:102E300081700421C17070470246002093680B40E6
:102E40000BB1012000E0002070470146886880B285
:102E5000704702460020D3680B400BB1012000E010
:102E6000002070470146C86880B270470161704712
:102E7000416170470AB1016100E041617047C16082
:102E800070474FF480320A438261816182618269B6
:102E900082697047024600202E4B18684FF68073F7
:102EA000184040EA021008432A4B186070472A492C
:102EB000C861704770B50B46002200240021002530
:102EC000244E7168C0F3034582B200F40016B6F5D3
:102ED000001F02D121F0E0610AE000F48016B6F58F
:102EE000801F04D1032606FA05F4A14300E09143B4
:102EF00043B100F40016B6F5001F02D141EA0241C9
:102F000000E01143134E716070BD30B500228B0795
:102F10001C0F0F2303FA04F20E4B08338C1053F8E6
:102F2000243093430B4C08348D1044F8253023464D
:102F30008C1053F824308C07240F00FA04F4234338
:102F4000044C08348D1044F8253030BD0010014089
:102F500000F8FEBF0000014000002042002045496B
:102F60000860091D0860091D0860091D08604248C5
:102F700040491431086070478179C9B301793F4AEB
:102F80001144D1F800140268114302793B4B1A44F2
:102F9000C2F8001437490831096802689143354A7C
:102FA00008321160111D096802689143314A0C32E0
:102FB0001160417910290ED1111F0968026811436F
:102FC0002C4A08321160111D096802681143294A10
:102FD0000C32116019E04179284A1144D1F80014EB
:102FE000026811434279254B1A44C2F800140CE0E0
:102FF000FFE70179214A1144D1F800140268914396
:1030000002791E4B1A44C2F8001470470021016077
:1030100001710C21417100218171704715491031F6
:1030200009680143134A10321160704701460020BD
:10303000104A143212680A400AB1012000E0002050
:1030400070470C4914310860704701460020002287
:10305000084B1B6803EA0102064B14331B680B4044
:1030600013B10AB1012000E000207047014914317A
:103070000860704700040140FFFF070000000140A6
:10308000FD49096801F03801FB4A116011460968E1
:10309000014311607047F849096821F00801F64AB8
:1030A000116011460968014311607047F2490968CF
:1030B00021F01001F04A11601146096801431160C6
:1030C0007047EE48EC494860ED4848607047EA4870
:1030D000006940F08000E849086170470420E64933
:1030E000C96801F0010109B101200EE0E249C96897
:1030F00001F0040109B1022007E0DF49C96801F0CD
:10310000100109B1032000E00420704708B5002039
:103110000090FF20009002E00098401E0090009870
:103120000028F9D108BD70B504460425FFF7D6FF85
:10313000054605E0FFF7EAFFFFF7D0FF0546641EEE
:10314000012D01D1002CF5D104B90525284670BD0B
:1031500070B50546042440F6FF70FFF7E4FF04460F
:10316000042C19D1C448006940F00200C24908612A
:1031700008464561006940F04000086140F6FF7074
:10318000FFF7D1FF0446012C06D0BB48006941F689
:10319000FD710840B8490861204670BD10B504248F
:1031A00040F6FF70FFF7BFFF0446042C18D1B24869
:1031B000006940F00400B04908610846006940F029
:1031C0004000086140F6FF70FFF7ADFF0446012C98
:1031D00006D0A948006941F6FB710840A64908617C
:1031E000204610BD10B5042440F6FF70FFF79BFF8A
:1031F0000446042C3BD1A1489F498860A0488860C0
:103200000846006940F0200008610846006940F067
:103210004000086140F6FF70FFF785FF0446042C6C
:103220001CD19548006941F6DF7108409249086158
:103230000846006940F010000861A5209149088007
:103240000F20FFF770FF0446012C10D08A48006958
:1032500041F6EF7108408849086108E0012C06D06A
:103260008548006941F6EF710840834908612046AE
:1032700010BD70B505460E4604240F20FFF753FF1E
:103280000446042C25D17C48006940F001007A49AD
:1032900008612E800F20FFF746FF0446042C0FD153
:1032A000300C68800F20FFF73EFF0446012C10D041
:1032B0007148006941F6FE7108406F49086108E0F5
:1032C000012C06D06C48006941F6FE7108406A493D
:1032D0000861204670BD70B505460E4604240F20D7
:1032E000FFF721FF0446042C13D16348006940F026
:1032F0000100614908612E800F20FFF714FF04468A
:10330000012C06D05C48006941F6FE7108405A491C
:103310000861204670BD70B505460E4604240F2096
:10332000FFF701FF0446042C17D154485249886026
:10333000534888600846006940F0100008612E80FC
:103340000F20FFF7F0FE0446012C06D04A48006922
:1033500041F6EF71084048490861204670BD2DE9EB
:10336000F04704464FF6FF763746B046B14604258F
:10337000E443E6B2C4F30727C4F307484FEA1469ED
:103380000F20FFF7D0FE0546042D40D13B483A49B7
:1033900088603B4888600846006940F0100008617A
:1033A000FF2E06D03748083006800F20FFF7BBFEFF
:1033B0000546042D08D1FF2F06D032480A30078079
:1033C0000F20FFF7B0FE0546042D0AD1B8F1FF0F1C
:1033D00007D02C480C30A0F800800F20FFF7A3FE88
:1033E0000546042D0AD1B9F1FF0F07D025480E304C
:1033F000A0F800900F20FFF796FE0546012D06D09D
:103400001D48006941F6EF7108401B4908612846D4
:10341000BDE8F08770B50546042440F6FF70FFF75D
:1034200082FE0446042C4AD114481349886014488B
:1034300088600846006940F020000861084600697D
:1034400040F04000086140F6FF70FFF76CFE044654
:10345000042C2BD10848006941F6DF710840064969
:1034600008610846006940F01000086165B100205D
:10347000044908800BE0000000200240230167455A
:10348000AB89EFCD00F8FF1FA5204549088040F625
:10349000FF70FFF748FE0446012C10D04148006938
:1034A00041F6EF7108403F49086108E0012C06D061
:1034B0003C48006941F6DF7108403A4908612046FE
:1034C00070BD2DE9F04107460D46164604243648E6
:1034D00034498860354888600F20FFF724FE044691
:1034E000042C1AD12F48006940F010002D490861C2
:1034F00047EA0500304340F0F8002949891C08805C
:103500000F20FFF710FE0446012C06D02548006965
:1035100041F6EF710840234908612046BDE8F0817B
:103520002048C069800870471E48006A7047002024
:103530001C49C96901F0020109B1012000E0002025
:10354000704700201749096801F0200109B10120E6
:1035500000E00020704729B1124A12690243114B62
:103560001A6104E00F4A126982430E4B1A617047D8
:1035700001460020012908D10A4AD26902F001025D
:103580000AB1012008E0002006E0064AD2680A409D
:103590000AB1012000E0002070470249C86070476E
:1035A00000F8FF1F0020024023016745AB89EFCDE3
:1035B00010B5431C02E010F8011B71B18107FAD16C
:1035C0004FF0013202C88C1A8C4314EAC211F9D0B0
:1035D000C01A0A0603D0C01E10BDC01A10BD0A04CE
:1035E00001D0801E10BD0902FCD0401E10BD032A70
:1035F00040F2308010F0030C00F0158011F8013B10
:10360000BCF1020F624498BF11F801CB00F8013BF6
:1036100038BF11F8013BA2F1040298BF00F801CBBA
:1036200038BF00F8013B11F0030300F02880083A8E
:10363000C0F0088051F8043B083A51F804CBA0E8E8
:103640000810F5E7121D5CBF51F8043B40F8043B3D
:10365000AFF30080D20724BF11F8013B11F801CB72
:1036600048BF11F8012B24BF00F8013B00F801CB43
:1036700048BF00F8012B704770477047704710B57E
:10368000203AC0F00B80B1E81850203AA0E818505A
:10369000B1E81850A0E81850BFF4F5AF5FEA027C1B
:1036A00024BFB1E81850A0E8185044BF18C918C08A
:1036B000BDE810405FEA827C24BF51F8043B40F82B
:1036C000043B08BF7047D20728BF31F8023B48BF10
:1036D00011F8012B28BF20F8023B48BF00F8012B4E
:1036E0007047754600F02CF8AE4605006946534613
:1036F00020F00700854618B020B5FCF789FDBDE82D
:1037000020404FF000064FF000074FF000084FF048
:10371000000B21F00701AC46ACE8C009ACE8C009D9
:10372000ACE8C009ACE8C0098D46704710B5044646
:10373000AFF300802046BDE81040FCF71EBD00003E
:10374000004870476002002001491820ABBEFEE728
:10375000260002007047000000000102030401027D
:103760000304060708090204060800008C37000855
:1037700000000020E800000028010008743800085C
:10378000E8000020D8090000440100080000000003
:103790000000000000000000000000000000000029
:1037A0000000000000000000000000FFFFFFFFFF1E
:1037B000FFFFFFFFFFFFFFFFFFFFFFFFFFFFFFFF19
:1037C000FFFFFFFFFFFFFFFFFFFFFFFFFFFFFFFF09
:1037D000FFFFFFFFFFFFFFFFFFFFFFFFFFFFFFFFF9
:1037E000FFFFFFFFFFFFFFFFFFFFFFFFFFFFFFFFE9
:1037F000FFFFFFFFFFFFFFFFFFFFFFFFFFFFFFFFD9
:10380000FFFFFFFFFFFFFFFFFFFFFFFFFFFFFFFFC8
:10381000FFFFFFFFFFFFFFFFFFFFFFFFFFFFFFFFB8
:10382000FFFFFFFFFFFFFFFFFFFFFFFFFFFFFFFFA8
:10383000FFFFFFFFFFFFFFFFFFFFFFFFFFFFFFFF98
:10384000FFFFFFFFFFFFFFFFFFFFFFFFFFFFFFFF88
:10385000FFFFFFFFFFFFFFFFFFFFFFFFFFFFFFFF78
:10386000FFFFFFFFFFFFFFFFFFFFFF000000000063
:043870000000000054
:04000005080001F9F5
:00000001FF
